:10030500A1B0B4FAC2EBB2E2CAD4A1B1C3FCC1EE4A
:10031500CAB6B1F0B3C9B9A60D0A00A1B0BFAAB754
:10032500A2B0E5D1E9D6A4A1B1C3FCC1EECAB6B16C
:10033500F0B3C9B9A60D0A00A1B0BFAAB5C6A1B14F
:10034500C3FCC1EECAB6B1F0B3C9B9A60D0A00A186
:10035500B0B9D8B5C6A1B1C3FCC1EECAB6B1F0B348
:10036500C9B9A60D0A00A1B0B1B1BEA9A1B1C3FC1E
:10037500C1EECAB6B1F0B3C9B9A60D0A00A1B0C99C
:10038500CFBAA3A1B1C3FCC1EECAB6B1F0B3C9B926
:10039500A60D0A00A1B0B9E3D6DDA1B1C3FCC1EE3B
:1003A500CAB6B1F0B3C9B9A60D0A00310D0A0032BB
:1003B5000D0A00330D0A00340D0A00350D0A00C779
:1003C500EBD6D8D0C2CAB6B1F0B7A2BFDAC1EE0D2E
:0203D5000A001C
:060A1300011C00011B00A4
:10082500E4F5091200061209CF1208B212095F8019
:100835002C781CE61460FA24F1601824DF60F22499
:10084500317020781C76011207D0EF70E4781C76A1
:100855003180DE120A34781EEFF61205BCE4781CEE
:09086500F680CEE4781CF680C890
:10000600B2C21209FBB2C21209FBB2C21209FBB29A
:0C001600C21209FBB2C21209FBB2C222E6
:1009CF007580FF7590FF75A0FF75B0FF75C0FF753F
:0E09DF0092FFE4F591C2C3D289D2A8D2AF2212
:0A0A080000007F057E49DEFEDFFCE2
:010A120022C1
:0809AB008F148E138D128C11C4
:1009B300E4F515F516F517F518781174FF1201F320
:0B09C300EC4D4E4F6005120A0880EE5C
:0109CE002206
:0C09FB007F117ED07D1BDDFEDEFCDFFAEC
:010A070022CC
:030003000208F3FD
:1008F300C0E0C0F0C083C082C0D075D000C000C0CB
:1009030001C002C003C004C005C006C007120481B1
:10091300D007D006D005D004D003D002D001D00038
:0B092300D0D0D082D083D0F0D0E032E2
:1005BC00EF12021105E80105F00205F8040600052A
:1005CC0006081606101706182F06203006283106C6
:1005DC003032063833064034000006487BFF7A037D
:1005EC007905805E7BFF7A03792080567BFF7A0346
:1005FC00793D804E7BFF7A03795480467BFF7A03EA
:10060C00796B803E7BFF7A03798280367BFF7A039D
:10061C007999802E7BFF7A0379B080267BFF7A0351
:10062C0079B4801E7BFF7A0379B880167BFF7A033E
:10063C0079BC800E7BFF7A0379C080067BFF7A033E
:06064C0079C412098622A8
:100026007869616F206A69650000000000000000C1
:10003600000000006B61692066612062616E2079B4
:10004600616E207A68656E67646169206D61206300
:100056006520736869000000000000006B6169207C
:1000660064656E67000000000000000000000000EC
:100076006775616E2064656E670000000000000011
:1000860000000000626569206A696E670000000072
:1000960000000000000000007368616E6720686160
:1000A6006900000000000000000000006775616E36
:1000B60067207A686F7500000000000000000000ED
:1000C60078696E206C7600000000000000000000D9
:1000D600000000007368656E2067616F0000000015
:1000E60000000000000000007875652079610000BE
:1000F6000000000000000000000000007469207A83
:10010600686F6E670000000000000000000000003D
:100116007775207869616E0000000000000000001D
:1001260000000000000000000000000000000000C9
:1001360000000000000000000000000000000000B9
:1001460000000000000000000000000000000000A9
:100156000000000000000000000000000000000099
:100166000000000000000000000000000000000089
:100176000000000000000000000000000000000079
:100186000000000000000000000000000000000069
:100196000000000000000000000000000000000059
:1001A6000000000000000000000000000000000049
:1001B600000201040516172F3031323334000000D7
:0401C6000000000035
:1008B200D2B57F017E007D007C001209ABC2B57FFC
:1008C200017E007D007C001209ABD2B57F017E0063
:1008D2007D007C001209ABC2A17F017E007D007CFD
:1008E200001209ABD2A17F017E007D007C000209CB
:0108F200AB5A
:100520007F06120A297D357F17120A1E7F0A7E0078
:100530007D007C001209AB7F06120A297D037F89AA
:10054000120A1E7F057E007D007C001209AB7D43F0
:100550007FCF120A1E7F057E007D007C001209AB52
:100560007D027FCB120A1E7D0A7F11120A1EE4FD56
:100570007F1E120A1E7D3F7F19120A1E7D487F1BB7
:10058000120A1E7D1F7F1D120A1E7F0A7E007D003B
:100590007C001209AB7D047FCD120A1E7F057E0010
:1005A0007D007C001209ABE4FD7FB9120A1E7D4F6D
:0C05B0007FCF120A1E7DFF7F6F020A1E23
:10077100120520E4FD7FBD120A1E7D487F17120A73
:100781001E7F0A7E007D007C001209AB7D807F3CCC
:10079100120A1E7D077F3E120A1E7DFF7F38120A54
:1007A1001E7D077F3A120A1EE4FD7F40120A1E7D5C
:1007B100087F42120A1EE4FD7F44120A1E7D087F53
:0F07C10046120A1E7F017E007D007C000209ABFC
:10048100E4F508C2A87F2B120A29781DA607E4FD0E
:100491007F29120A1EE4FD7F02120A1E781DE63032
:1004A100E4377FB2120A29EF6421702D7FBF120A4F
:1004B10029EF643570237FBA120A298F087E00D391
:1004C100EF9400748094804010D3EF94047480946E
:1004D100805006781C76108004781C7611E4FD7F2C
:1004E1002B120A1EE4FD7F1C120A1EE4FD7F291255
:1004F1000A1EE4FD7F02120A1EE4FD7F2B120A1E72
:10050100E4FD7FBA120A1EE4FD7FBC120A1E7D01C2
:0E0511007F08120A1EE4FD7F08120A1ED2A8FF
:01051F0022B9
:1007D000E4F50AF50BF50AC3E50A940574809480E4
:1007E0005040120A397F327E007D007C001209AB36
:1007F0001203D7EF700280117F0A7E007D007C001B
:100800001209AB120652EF70101208B27F327E004E
:100810007D007C001209AB8005750B018004050A80
:0408200080B5AF0BE5
:0108240022B1
:10092E00E4F510F50FC3E50F940A74809480501E01
:10093E007FB2120A29EF64217005751001800F7FB6
:10094E000A7E007D007C001209AB050F80D7AF1028
:01095E002276
:030A390002077140
:10065200C2A87D507F35120A1E7D097F1C120A1E18
:100662007D207FBD120A1E7D017F08120A1E7F01B6
:100672007E007D007C001209ABE4FD7F08120A1E99
:100682007F017E007D007C001209AB12092EEF7003
:1006920002FF227D0B7F1C120A1E7DFF7FB2120A0F
:1006A2001E7F017E007D007C001209AB7D067F3734
:1006B200120A1E7F017E007D007C001209AB7D06BE
:1006C2007F37120A1E7F057E007D007C001209AB77
:1006D2007D107F29120A1EE4FD7FBD120A1ED2A8D8
:0306E2007F012273
:1003D700750D01E4F50CC3E50C941474809480400A
:1003E7000302047E12092EEF7005F50D02047EE567
:1003F7000C9001B693FD7FC1120A1EE4FD7FC31264
:100407000A1E7D047F08120A1E7F017E007D007C84
:10041700001209ABE4FD7F08120A1E7F017E007DF2
:10042700007C001209ABE4F50EC3E50E941474804A
:100437009480502975F014E50CA42426F582E5F084
:100447003400F583E582250EF582E43583F583E4F0
:1004570093FD60097F05120A1E050E80CCAD0E7F45
:10046700B9120A1E7DFF7FB2120A1E7D047F371262
:090477000A1E050C0203DDAF0DA5
:010480002259
:050A34007FC5020A2944
:0B0A1E00908100EFF0908000EDF022CE
:0B0A2900908100EFF0908000E0FF22C1
:040A19000219258019
:10095F00759850758920AE19AF1AAB07AA06E4F93E
:10096F00F8FF7EE1FDFC12086E1201E38F8B8F8D75
:07097F00D28ED2ACD2AF22F0
:03002300020022B6
:0100220032AB
:0E09ED00C2ACC2998F993099FDC299D2AC224A
:100986008B0A8A0B890CAB0AAA0BA90C1201CA6046
:1009960013050CE50C7002050B14F91201CAFF12BF
:0509A60009ED80E222D2
:030000000206E510
:0C06E500787FE4F6D8FD75811E02072C1A
:1001CA00BB010689828A83E0225002E722BBFE0233
:0901DA00E32289828A83E4932266
:10086E00C2D5E830E70FB2D5E4C39BFBE49AFAE4B5
:10087E0099F9E498F8EC30E717B2D51208A41202F1
:10088E0073E4C39BFBE49AFAE499F9E498F88003C5
:10089E0012027330D50DE4C39FFFE49EFEE49DFD6E
:0408AE00E49CFC22A8
:0E01E300C3E49FFFE49EFEE49DFDE49CFC222D
:1001F1007401FF3395E0FEFDFC080808E6CF2FF6F9
:1002010018E6CE3EF618E6CD3DF618E6CC3CF622D1
:10021100D083D082F8E4937012740193700DA3A37C
:1002210093F8740193F5828883E473740293686090
:06023100EFA3A3A380DF90
:1006F100020825E493A3F8E493A34003F68001F2F2
:1007010008DFF48029E493A3F85407240CC8C33309
:10071100C4540F4420C8834004F456800146F6DFD8
:10072100E4800B0102040810204080900A13E47E4B
:10073100019360BCA3FF543F30E509541FFEE493CD
:10074100A360010ECF54C025E060A840B8E493A394
:10075100FAE493A3F8E493A3C8C582C8CAC583CABF
:10076100F0A3C8C582C8CAC583CADFE9DEE780BE77
:010A1D0000D8
:1002370075F008758200EF2FFFEE33FECD33CDCC7E
:1002470033CCC58233C5829BED9AEC99E582984001
:100257000CF582EE9BFEED9AFDEC99FC0FD5F0D6DE
:10026700E4CEFBE4CDFAE4CCF9A88222B800C1B908
:100277000059BA002DEC8BF084CFCECDFCE5F0CB46
:10028700F97818EF2FFFEE33FEED33FDEC33FCEB7F
:1002970033FB10D703994004EB99FB0FD8E5E4F93A
:1002A700FA227818EF2FFFEE33FEED33FDEC33FC27
:1002B700C933C910D7059BE99A4007EC9BFCE99A1B
:1002C700F90FD8E0E4C9FAE4CCFB2275F010EF2F60
:1002D700FFEE33FEED33FDCC33CCC833C810D70760
:1002E7009BEC9AE899400AED9BFDEC9AFCE899F89B
:0E02F7000FD5F0DAE4CDFBE4CCFAE4C8F9222E
:00000001FF
